{
  "contractName": "CrowdFunding",
  "abi": [
    {
      "constant": true,
      "inputs": [
        {
          "internalType": "uint256",
          "name": "",
          "type": "uint256"
        }
      ],
      "name": "fundings",
      "outputs": [
        {
          "internalType": "address payable",
          "name": "initiator",
          "type": "address"
        },
        {
          "internalType": "string",
          "name": "title",
          "type": "string"
        },
        {
          "internalType": "string",
          "name": "info",
          "type": "string"
        },
        {
          "internalType": "uint256",
          "name": "goal",
          "type": "uint256"
        },
        {
          "internalType": "uint256",
          "name": "startTime",
          "type": "uint256"
        },
        {
          "internalType": "uint256",
          "name": "endTime",
          "type": "uint256"
        },
        {
          "internalType": "bool",
          "name": "success",
          "type": "bool"
        },
        {
          "internalType": "bool",
          "name": "isCancel",
          "type": "bool"
        },
        {
          "internalType": "uint256",
          "name": "amount",
          "type": "uint256"
        },
        {
          "internalType": "uint256",
          "name": "numFunders",
          "type": "uint256"
        },
        {
          "internalType": "uint256",
          "name": "numUses",
          "type": "uint256"
        }
      ],
      "payable": false,
      "stateMutability": "view",
      "type": "function"
    },
    {
      "constant": true,
      "inputs": [],
      "name": "numFundings",
      "outputs": [
        {
          "internalType": "uint256",
          "name": "",
          "type": "uint256"
        }
      ],
      "payable": false,
      "stateMutability": "view",
      "type": "function"
    },
    {
      "constant": true,
      "inputs": [],
      "name": "numTransactions",
      "outputs": [
        {
          "internalType": "uint256",
          "name": "",
          "type": "uint256"
        }
      ],
      "payable": false,
      "stateMutability": "view",
      "type": "function"
    },
    {
      "constant": true,
      "inputs": [
        {
          "internalType": "uint256",
          "name": "",
          "type": "uint256"
        }
      ],
      "name": "transactions",
      "outputs": [
        {
          "internalType": "address",
          "name": "from",
          "type": "address"
        },
        {
          "internalType": "address",
          "name": "to",
          "type": "address"
        },
        {
          "internalType": "uint256",
          "name": "amount",
          "type": "uint256"
        },
        {
          "internalType": "uint256",
          "name": "timestamp",
          "type": "uint256"
        },
        {
          "internalType": "string",
          "name": "txType",
          "type": "string"
        }
      ],
      "payable": false,
      "stateMutability": "view",
      "type": "function"
    },
    {
      "constant": false,
      "inputs": [
        {
          "internalType": "address payable",
          "name": "initiator",
          "type": "address"
        },
        {
          "internalType": "string",
          "name": "title",
          "type": "string"
        },
        {
          "internalType": "string",
          "name": "info",
          "type": "string"
        },
        {
          "internalType": "uint256",
          "name": "goal",
          "type": "uint256"
        },
        {
          "internalType": "uint256",
          "name": "endTime",
          "type": "uint256"
        }
      ],
      "name": "newFunding",
      "outputs": [
        {
          "internalType": "uint256",
          "name": "",
          "type": "uint256"
        }
      ],
      "payable": false,
      "stateMutability": "nonpayable",
      "type": "function"
    },
    {
      "constant": true,
      "inputs": [
        {
          "internalType": "address",
          "name": "user",
          "type": "address"
        }
      ],
      "name": "getUserTransactionCount",
      "outputs": [
        {
          "internalType": "uint256",
          "name": "",
          "type": "uint256"
        }
      ],
      "payable": false,
      "stateMutability": "view",
      "type": "function"
    },
    {
      "constant": true,
      "inputs": [
        {
          "internalType": "address",
          "name": "user",
          "type": "address"
        }
      ],
      "name": "getUserTransactionIds",
      "outputs": [
        {
          "internalType": "uint256[]",
          "name": "",
          "type": "uint256[]"
        }
      ],
      "payable": false,
      "stateMutability": "view",
      "type": "function"
    },
    {
      "constant": true,
      "inputs": [
        {
          "internalType": "uint256",
          "name": "id",
          "type": "uint256"
        }
      ],
      "name": "getTransaction",
      "outputs": [
        {
          "internalType": "address",
          "name": "",
          "type": "address"
        },
        {
          "internalType": "address",
          "name": "",
          "type": "address"
        },
        {
          "internalType": "uint256",
          "name": "",
          "type": "uint256"
        },
        {
          "internalType": "uint256",
          "name": "",
          "type": "uint256"
        },
        {
          "internalType": "string",
          "name": "",
          "type": "string"
        }
      ],
      "payable": false,
      "stateMutability": "view",
      "type": "function"
    },
    {
      "constant": false,
      "inputs": [
        {
          "internalType": "uint256",
          "name": "ID",
          "type": "uint256"
        }
      ],
      "name": "contribute",
      "outputs": [],
      "payable": true,
      "stateMutability": "payable",
      "type": "function"
    },
    {
      "constant": false,
      "inputs": [
        {
          "internalType": "uint256",
          "name": "ID",
          "type": "uint256"
        },
        {
          "internalType": "uint256",
          "name": "returnAmount",
          "type": "uint256"
        }
      ],
      "name": "returnMoney",
      "outputs": [],
      "payable": false,
      "stateMutability": "nonpayable",
      "type": "function"
    },
    {
      "constant": false,
      "inputs": [
        {
          "internalType": "uint256",
          "name": "ID",
          "type": "uint256"
        },
        {
          "internalType": "uint256",
          "name": "goal",
          "type": "uint256"
        },
        {
          "internalType": "string",
          "name": "info",
          "type": "string"
        }
      ],
      "name": "newUse",
      "outputs": [],
      "payable": false,
      "stateMutability": "nonpayable",
      "type": "function"
    },
    {
      "constant": false,
      "inputs": [
        {
          "internalType": "uint256",
          "name": "ID",
          "type": "uint256"
        },
        {
          "internalType": "uint256",
          "name": "useID",
          "type": "uint256"
        },
        {
          "internalType": "bool",
          "name": "agree",
          "type": "bool"
        }
      ],
      "name": "agreeUse",
      "outputs": [],
      "payable": false,
      "stateMutability": "nonpayable",
      "type": "function"
    },
    {
      "constant": false,
      "inputs": [
        {
          "internalType": "uint256",
          "name": "ID",
          "type": "uint256"
        },
        {
          "internalType": "uint256",
          "name": "useID",
          "type": "uint256"
        }
      ],
      "name": "checkUse",
      "outputs": [],
      "payable": false,
      "stateMutability": "nonpayable",
      "type": "function"
    },
    {
      "constant": true,
      "inputs": [
        {
          "internalType": "uint256",
          "name": "ID",
          "type": "uint256"
        }
      ],
      "name": "getUseLength",
      "outputs": [
        {
          "internalType": "uint256",
          "name": "",
          "type": "uint256"
        }
      ],
      "payable": false,
      "stateMutability": "view",
      "type": "function"
    },
    {
      "constant": true,
      "inputs": [
        {
          "internalType": "uint256",
          "name": "ID",
          "type": "uint256"
        },
        {
          "internalType": "uint256",
          "name": "useID",
          "type": "uint256"
        },
        {
          "internalType": "address",
          "name": "addr",
          "type": "address"
        }
      ],
      "name": "getUse",
      "outputs": [
        {
          "internalType": "string",
          "name": "",
          "type": "string"
        },
        {
          "internalType": "uint256",
          "name": "",
          "type": "uint256"
        },
        {
          "internalType": "uint256",
          "name": "",
          "type": "uint256"
        },
        {
          "internalType": "uint256",
          "name": "",
          "type": "uint256"
        },
        {
          "internalType": "bool",
          "name": "",
          "type": "bool"
        },
        {
          "internalType": "uint256",
          "name": "",
          "type": "uint256"
        }
      ],
      "payable": false,
      "stateMutability": "view",
      "type": "function"
    },
    {
      "constant": true,
      "inputs": [],
      "name": "getBalance",
      "outputs": [
        {
          "internalType": "uint256",
          "name": "",
          "type": "uint256"
        }
      ],
      "payable": false,
      "stateMutability": "view",
      "type": "function"
    },
    {
      "constant": true,
      "inputs": [
        {
          "internalType": "address",
          "name": "addr",
          "type": "address"
        },
        {
          "internalType": "uint256",
          "name": "ID",
          "type": "uint256"
        }
      ],
      "name": "getMyFundings",
      "outputs": [
        {
          "internalType": "uint256",
          "name": "",
          "type": "uint256"
        }
      ],
      "payable": false,
      "stateMutability": "view",
      "type": "function"
    },
    {
      "constant": false,
      "inputs": [
        {
          "internalType": "uint256",
          "name": "ID",
          "type": "uint256"
        }
      ],
      "name": "cancelFunding",
      "outputs": [],
      "payable": false,
      "stateMutability": "nonpayable",
      "type": "function"
    },
    {
      "constant": false,
      "inputs": [
        {
          "internalType": "uint256",
          "name": "ID",
          "type": "uint256"
        }
      ],
      "name": "checkTimeoutAndRefund",
      "outputs": [],
      "payable": false,
      "stateMutability": "nonpayable",
      "type": "function"
    },
    {
      "constant": true,
      "inputs": [
        {
          "internalType": "uint256",
          "name": "ID",
          "type": "uint256"
        }
      ],
      "name": "getFunderCount",
      "outputs": [
        {
          "internalType": "uint256",
          "name": "",
          "type": "uint256"
        }
      ],
      "payable": false,
      "stateMutability": "view",
      "type": "function"
    },
    {
      "constant": true,
      "inputs": [
        {
          "internalType": "uint256",
          "name": "ID",
          "type": "uint256"
        },
        {
          "internalType": "uint256",
          "name": "funderIndex",
          "type": "uint256"
        }
      ],
      "name": "getFunder",
      "outputs": [
        {
          "internalType": "address",
          "name": "",
          "type": "address"
        },
        {
          "internalType": "uint256",
          "name": "",
          "type": "uint256"
        }
      ],
      "payable": false,
      "stateMutability": "view",
      "type": "function"
    }
  ],
  "bytecode": "0x608060405234801561001057600080fd5b5061332c806100206000396000f3fe60806040526004361061012a5760003560e01c80638a23e047116100ab578063c70a2d791161006f578063c70a2d79146108e4578063d13cb1fb1461090f578063d8f3384014610aa2578063ee40f60d14610b07578063f978de0214610c0c578063fb9e9d9a14610c985761012a565b80638a23e047146105775780638f74935f146105bc57806390b4cc72146107635780639ace38c21461078e578063c1cbbca7146108b65761012a565b80634ef6d826116100f25780634ef6d826146103e857806357531ea214610437578063716f7147146104885780637cc44f5d146104f757806388642860146105325761012a565b806305e1c4251461012f57806312065fe01461016a578063164b2fb31461019557806333ea3dc8146102715780633c69834914610399575b600080fd5b34801561013b57600080fd5b506101686004803603602081101561015257600080fd5b8101908080359060200190929190505050610d3e565b005b34801561017657600080fd5b5061017f61111d565b6040518082815260200191505060405180910390f35b3480156101a157600080fd5b5061026f600480360360608110156101b857600080fd5b810190808035906020019092919080359060200190929190803590602001906401000000008111156101e957600080fd5b8201836020820111156101fb57600080fd5b8035906020019184600183028401116401000000008311171561021d57600080fd5b91908080601f016020809104026020016040519081016040528093929190818152602001838380828437600081840152601f19601f820116905080830192505050505050509192919290505050611125565b005b34801561027d57600080fd5b506102aa6004803603602081101561029457600080fd5b810190808035906020019092919050505061134e565b604051808673ffffffffffffffffffffffffffffffffffffffff1673ffffffffffffffffffffffffffffffffffffffff1681526020018573ffffffffffffffffffffffffffffffffffffffff1673ffffffffffffffffffffffffffffffffffffffff16815260200184815260200183815260200180602001828103825283818151815260200191508051906020019080838360005b8381101561035a57808201518184015260208101905061033f565b50505050905090810190601f1680156103875780820380516001836020036101000a031916815260200191505b50965050505050505060405180910390f35b3480156103a557600080fd5b506103d2600480360360208110156103bc57600080fd5b81019080803590602001909291905050506114f9565b6040518082815260200191505060405180910390f35b3480156103f457600080fd5b506104216004803603602081101561040b57600080fd5b8101908080359060200190929190505050611534565b6040518082815260200191505060405180910390f35b34801561044357600080fd5b506104866004803603606081101561045a57600080fd5b8101908080359060200190929190803590602001909291908035151590602001909291905050506115d8565b005b34801561049457600080fd5b506104e1600480360360408110156104ab57600080fd5b81019080803573ffffffffffffffffffffffffffffffffffffffff169060200190929190803590602001909291905050506119cf565b6040518082815260200191505060405180910390f35b34801561050357600080fd5b506105306004803603602081101561051a57600080fd5b8101908080359060200190929190505050611ac0565b005b34801561053e57600080fd5b506105756004803603604081101561055557600080fd5b810190808035906020019092919080359060200190929190505050611e63565b005b34801561058357600080fd5b506105ba6004803603604081101561059a57600080fd5b8101908080359060200190929190803590602001909291905050506122df565b005b3480156105c857600080fd5b5061074d600480360360a08110156105df57600080fd5b81019080803573ffffffffffffffffffffffffffffffffffffffff1690602001909291908035906020019064010000000081111561061c57600080fd5b82018360208201111561062e57600080fd5b8035906020019184600183028401116401000000008311171561065057600080fd5b91908080601f016020809104026020016040519081016040528093929190818152602001838380828437600081840152601f19601f820116905080830192505050505050509192919290803590602001906401000000008111156106b357600080fd5b8201836020820111156106c557600080fd5b803590602001918460018302840111640100000000831117156106e757600080fd5b91908080601f016020809104026020016040519081016040528093929190818152602001838380828437600081840152601f19601f8201169050808301925050505050505091929192908035906020019092919080359060200190929190505050612574565b6040518082815260200191505060405180910390f35b34801561076f57600080fd5b5061077861269d565b6040518082815260200191505060405180910390f35b34801561079a57600080fd5b506107c7600480360360208110156107b157600080fd5b81019080803590602001909291905050506126a3565b604051808673ffffffffffffffffffffffffffffffffffffffff1673ffffffffffffffffffffffffffffffffffffffff1681526020018573ffffffffffffffffffffffffffffffffffffffff1673ffffffffffffffffffffffffffffffffffffffff16815260200184815260200183815260200180602001828103825283818151815260200191508051906020019080838360005b8381101561087757808201518184015260208101905061085c565b50505050905090810190601f1680156108a45780820380516001836020036101000a031916815260200191505b50965050505050505060405180910390f35b6108e2600480360360208110156108cc57600080fd5b81019080803590602001909291905050506127b1565b005b3480156108f057600080fd5b506108f961296f565b6040518082815260200191505060405180910390f35b34801561091b57600080fd5b506109486004803603602081101561093257600080fd5b8101908080359060200190929190505050612975565b604051808c73ffffffffffffffffffffffffffffffffffffffff1673ffffffffffffffffffffffffffffffffffffffff16815260200180602001806020018b81526020018a8152602001898152602001881515151581526020018715151515815260200186815260200185815260200184815260200183810383528d818151815260200191508051906020019080838360005b838110156109f65780820151818401526020810190506109db565b50505050905090810190601f168015610a235780820380516001836020036101000a031916815260200191505b5083810382528c818151815260200191508051906020019080838360005b83811015610a5c578082015181840152602081019050610a41565b50505050905090810190601f168015610a895780820380516001836020036101000a031916815260200191505b509d505050505050505050505050505060405180910390f35b348015610aae57600080fd5b50610af160048036036020811015610ac557600080fd5b81019080803573ffffffffffffffffffffffffffffffffffffffff169060200190929190505050612b39565b6040518082815260200191505060405180910390f35b348015610b1357600080fd5b50610b6a60048036036060811015610b2a57600080fd5b810190808035906020019092919080359060200190929190803573ffffffffffffffffffffffffffffffffffffffff169060200190929190505050612b85565b604051808060200187815260200186815260200185815260200184151515158152602001838152602001828103825288818151815260200191508051906020019080838360005b83811015610bcc578082015181840152602081019050610bb1565b50505050905090810190601f168015610bf95780820380516001836020036101000a031916815260200191505b5097505050505050505060405180910390f35b348015610c1857600080fd5b50610c4f60048036036040811015610c2f57600080fd5b810190808035906020019092919080359060200190929190505050612dd9565b604051808373ffffffffffffffffffffffffffffffffffffffff1673ffffffffffffffffffffffffffffffffffffffff1681526020018281526020019250505060405180910390f35b348015610ca457600080fd5b50610ce760048036036020811015610cbb57600080fd5b81019080803573ffffffffffffffffffffffffffffffffffffffff169060200190929190505050612f5e565b6040518080602001828103825283818151815260200191508051906020019060200280838360005b83811015610d2a578082015181840152602081019050610d0f565b505050509050019250505060405180910390f35b6000548111158015610d51575060018110155b610dc3576040517f08c379a00000000000000000000000000000000000000000000000000000000081526004018080602001828103825260128152602001807f496e76616c69642066756e64696e67204944000000000000000000000000000081525060200191505060405180910390fd5b600015156001600083815260200190815260200160002060060160009054906101000a900460ff16151514610e60576040517f08c379a00000000000000000000000000000000000000000000000000000000081526004018080602001828103825260208152602001807f43616e6e6f742063616e63656c207375636365737366756c2066756e64696e6781525060200191505060405180910390fd5b6001600082815260200190815260200160002060000160009054906101000a900473ffffffffffffffffffffffffffffffffffffffff1673ffffffffffffffffffffffffffffffffffffffff163373ffffffffffffffffffffffffffffffffffffffff1614610f1a576040517f08c379a00000000000000000000000000000000000000000000000000000000081526004018080602001828103825260218152602001806132886021913960400191505060405180910390fd5b60006001600083815260200190815260200160002090506000600190505b816008015481116110a657600082600a01600083815260200190815260200160002060010154111561109957600082600a01600083815260200190815260200160002060010154905082600a01600083815260200190815260200160002060000160009054906101000a900473ffffffffffffffffffffffffffffffffffffffff1673ffffffffffffffffffffffffffffffffffffffff166108fc829081150290604051600060405180830381858888f19350505050158015610fff573d6000803e3d6000fd5b506110793084600a01600085815260200190815260200160002060000160009054906101000a900473ffffffffffffffffffffffffffffffffffffffff16836040518060400160405280601281526020017fe4bc97e7adb9e58f96e6b688e98080e6acbe0000000000000000000000000000815250612ff5565b600083600a01600084815260200190815260200160002060010181905550505b8080600101915050610f38565b506000816007018190555060018160060160016101000a81548160ff021916908315150217905550428160050181905550611119333060006040518060400160405280600c81526020017fe58f96e6b688e4bc97e7adb90000000000000000000000000000000000000000815250612ff5565b5050565b600047905090565b6000548311158015611138575060018310155b61114157600080fd5b600115156001600085815260200190815260200160002060060160009054906101000a900460ff1615151461117557600080fd5b600160008481526020019081526020016000206007015482111561119857600080fd5b6001600084815260200190815260200160002060000160009054906101000a900473ffffffffffffffffffffffffffffffffffffffff1673ffffffffffffffffffffffffffffffffffffffff163373ffffffffffffffffffffffffffffffffffffffff161461120657600080fd5b6000600160008581526020019081526020016000209050600181600901540181600901819055508181600b01600083600901548152602001908152602001600020600001908051906020019061125d9291906131e2565b508281600b0160008360090154815260200190815260200160002060010181905550600081600b0160008360090154815260200190815260200160002060020181905550600081600b0160008360090154815260200190815260200160002060030181905550600081600b0160008360090154815260200190815260200160002060040160006101000a81548160ff0219169083151502179055508281600701540381600701819055506113483033856040518060400160405280600c81526020017fe4bdbfe794a8e8b584e987910000000000000000000000000000000000000000815250612ff5565b50505050565b600080600080606060008611801561136857506002548611155b6113da576040517f08c379a00000000000000000000000000000000000000000000000000000000081526004018080602001828103825260168152602001807f496e76616c6964207472616e73616374696f6e2049440000000000000000000081525060200191505060405180910390fd5b60006003600088815260200190815260200160002090508060000160009054906101000a900473ffffffffffffffffffffffffffffffffffffffff168160010160009054906101000a900473ffffffffffffffffffffffffffffffffffffffff168260020154836003015484600401808054600181600116156101000203166002900480601f0160208091040260200160405190810160405280929190818152602001828054600181600116156101000203166002900480156114de5780601f106114b3576101008083540402835291602001916114de565b820191906000526020600020905b8154815290600101906020018083116114c157829003601f168201915b50505050509050955095509550955095505091939590929450565b60008054821115801561150d575060018210155b61151657600080fd5b60016000838152602001908152602001600020600901549050919050565b600080548211158015611548575060018210155b6115ba576040517f08c379a00000000000000000000000000000000000000000000000000000000081526004018080602001828103825260128152602001807f496e76616c69642066756e64696e67204944000000000000000000000000000081525060200191505060405180910390fd5b60016000838152602001908152602001600020600801549050919050565b60005483111580156115eb575060018310155b6115f457600080fd5b6001600084815260200190815260200160002060090154821115801561161b575060018210155b61162457600080fd5b6000151560016000858152602001908152602001600020600b01600084815260200190815260200160002060040160009054906101000a900460ff1615151461166c57600080fd5b6000600190505b600160008581526020019081526020016000206008015481116119bf573373ffffffffffffffffffffffffffffffffffffffff1660016000868152602001908152602001600020600a01600083815260200190815260200160002060000160009054906101000a900473ffffffffffffffffffffffffffffffffffffffff1673ffffffffffffffffffffffffffffffffffffffff1614156119b2576001806000868152602001908152602001600020600b01600085815260200190815260200160002060050160008381526020019081526020016000205414156117b85760016000858152602001908152602001600020600a0160008281526020019081526020016000206001015460016000868152602001908152602001600020600b01600085815260200190815260200160002060020160008282540392505081905550611860565b600260016000868152602001908152602001600020600b016000858152602001908152602001600020600501600083815260200190815260200160002054141561185f5760016000858152602001908152602001600020600a0160008281526020019081526020016000206001015460016000868152602001908152602001600020600b016000858152602001908152602001600020600301600082825403925050819055505b5b811561190d5760016000858152602001908152602001600020600a0160008281526020019081526020016000206001015460016000868152602001908152602001600020600b016000858152602001908152602001600020600201600082825401925050819055506001806000868152602001908152602001600020600b0160008581526020019081526020016000206005016000838152602001908152602001600020819055506119b1565b60016000858152602001908152602001600020600a0160008281526020019081526020016000206001015460016000868152602001908152602001600020600b01600085815260200190815260200160002060030160008282540192505081905550600260016000868152602001908152602001600020600b0160008581526020019081526020016000206005016000838152602001908152602001600020819055505b5b8080600101915050611673565b506119ca83836122df565b505050565b600080600090506000600190505b60016000858152602001908152602001600020600801548111611ab5578473ffffffffffffffffffffffffffffffffffffffff1660016000868152602001908152602001600020600a01600083815260200190815260200160002060000160009054906101000a900473ffffffffffffffffffffffffffffffffffffffff1673ffffffffffffffffffffffffffffffffffffffff161415611aa85760016000858152602001908152602001600020600a01600082815260200190815260200160002060010154820191505b80806001019150506119dd565b508091505092915050565b6000548111158015611ad3575060018110155b611b45576040517f08c379a00000000000000000000000000000000000000000000000000000000081526004018080602001828103825260128152602001807f496e76616c69642066756e64696e67204944000000000000000000000000000081525060200191505060405180910390fd5b600060016000838152602001908152602001600020905080600501544211611bd5576040517f08c379a00000000000000000000000000000000000000000000000000000000081526004018080602001828103825260178152602001807f46756e64696e67206e6f742074696d656f75742079657400000000000000000081525060200191505060405180910390fd5b8060060160009054906101000a900460ff1615611c5a576040517f08c379a00000000000000000000000000000000000000000000000000000000081526004018080602001828103825260158152602001807f46756e64696e67206973207375636365737366756c000000000000000000000081525060200191505060405180910390fd5b8060060160019054906101000a900460ff1615611cdf576040517f08c379a000000000000000000000000000000000000000000000000000000000815260040180806020018281038252601c8152602001807f46756e64696e6720697320616c72656164792063616e63656c6c65640000000081525060200191505060405180910390fd5b6000600190505b81600801548111611e5457600082600a016000838152602001908152602001600020600101541115611e4757600082600a01600083815260200190815260200160002060010154905082600a01600083815260200190815260200160002060000160009054906101000a900473ffffffffffffffffffffffffffffffffffffffff1673ffffffffffffffffffffffffffffffffffffffff166108fc829081150290604051600060405180830381858888f19350505050158015611dad573d6000803e3d6000fd5b50611e273084600a01600085815260200190815260200160002060000160009054906101000a900473ffffffffffffffffffffffffffffffffffffffff16836040518060400160405280601281526020017fe4bc97e7adb9e8b685e697b6e98080e6acbe0000000000000000000000000000815250612ff5565b600083600a01600084815260200190815260200160002060010181905550505b8080600101915050611ce6565b50600081600701819055505050565b6000548211158015611e76575060018210155b611ee8576040517f08c379a00000000000000000000000000000000000000000000000000000000081526004018080602001828103825260128152602001807f496e76616c69642066756e64696e67204944000000000000000000000000000081525060200191505060405180910390fd5b600015156001600084815260200190815260200160002060060160009054906101000a900460ff16151514611f68576040517f08c379a000000000000000000000000000000000000000000000000000000000815260040180806020018281038252602b8152602001806132a9602b913960400191505060405180910390fd5b600060016000848152602001908152602001600020905060008090506000600190505b8260080154811161202d573373ffffffffffffffffffffffffffffffffffffffff1683600a01600083815260200190815260200160002060000160009054906101000a900473ffffffffffffffffffffffffffffffffffffffff1673ffffffffffffffffffffffffffffffffffffffff1614156120205782600a01600082815260200190815260200160002060010154820191505b8080600101915050611f8b565b50828110156120a4576040517f08c379a00000000000000000000000000000000000000000000000000000000081526004018080602001828103825260208152602001807f43616e6e6f742072657475726e206d6f7265207468616e20696e76657374656481525060200191505060405180910390fd5b600083116120fd576040517f08c379a00000000000000000000000000000000000000000000000000000000081526004018080602001828103825260248152602001806132d46024913960400191505060405180910390fd5b60008390506000836008015490505b6001811015801561211d5750600082115b156122d7573373ffffffffffffffffffffffffffffffffffffffff1684600a01600083815260200190815260200160002060000160009054906101000a900473ffffffffffffffffffffffffffffffffffffffff1673ffffffffffffffffffffffffffffffffffffffff161480156121ad5750600084600a01600083815260200190815260200160002060010154115b156122c957600082905084600a016000838152602001908152602001600020600101548111156121f35784600a0160008381526020019081526020016000206001015490505b8085600a01600084815260200190815260200160002060010160008282540392505081905550808303925080856007016000828254039250508190555060008314156122c7573373ffffffffffffffffffffffffffffffffffffffff166108fc879081150290604051600060405180830381858888f1935050505015801561227f573d6000803e3d6000fd5b506122c13033886040518060400160405280600681526020017fe98080e6acbe0000000000000000000000000000000000000000000000000000815250612ff5565b506122d7565b505b80806001900391505061210c565b505050505050565b60005482111580156122f2575060018210155b6122fb57600080fd5b6000151560016000848152602001908152602001600020600b01600083815260200190815260200160002060040160009054906101000a900460ff1615151461234357600080fd5b600260016000848152602001908152602001600020600301548161236357fe5b0460016000848152602001908152602001600020600b016000838152602001908152602001600020600201541061247e576001806000848152602001908152602001600020600b01600083815260200190815260200160002060040160006101000a81548160ff0219169083151502179055506001600083815260200190815260200160002060000160009054906101000a900473ffffffffffffffffffffffffffffffffffffffff1673ffffffffffffffffffffffffffffffffffffffff166108fc60016000858152602001908152602001600020600b016000848152602001908152602001600020600101549081150290604051600060405180830381858888f1935050505015801561247c573d6000803e3d6000fd5b505b600260016000848152602001908152602001600020600301548161249e57fe5b0460016000848152602001908152602001600020600b0160008381526020019081526020016000206003015411156125705760016000838152602001908152602001600020600b0160008281526020019081526020016000206001015460016000848152602001908152602001600020600701540160016000848152602001908152602001600020600701819055506001806000848152602001908152602001600020600b01600083815260200190815260200160002060040160006101000a81548160ff0219169083151502179055505b5050565b600042821161258257600080fd5b600160005401600081905550600060016000805481526020019081526020016000209050868160000160006101000a81548173ffffffffffffffffffffffffffffffffffffffff021916908373ffffffffffffffffffffffffffffffffffffffff160217905550858160010190805190602001906126019291906131e2565b508481600201908051906020019061261a9291906131e2565b5083816003018190555042816004018190555082816005018190555060008160060160016101000a81548160ff02191690831515021790555060008160060160006101000a81548160ff02191690831515021790555060008160070181905550600081600801819055506000816009018190555060005491505095945050505050565b60025481565b60036020528060005260406000206000915090508060000160009054906101000a900473ffffffffffffffffffffffffffffffffffffffff16908060010160009054906101000a900473ffffffffffffffffffffffffffffffffffffffff1690806002015490806003015490806004018054600181600116156101000203166002900480601f0160208091040260200160405190810160405280929190818152602001828054600181600116156101000203166002900480156127a75780601f1061277c576101008083540402835291602001916127a7565b820191906000526020600020905b81548152906001019060200180831161278a57829003601f168201915b5050505050905085565b6000341180156127ef575060016000828152602001908152602001600020600701546001600083815260200190815260200160002060030154033411155b6127f857600080fd5b4260016000838152602001908152602001600020600501541161281a57600080fd5b600015156001600083815260200190815260200160002060060160009054906101000a900460ff1615151461284e57600080fd5b6000600160008381526020019081526020016000209050348160070160008282540192505081905550600181600801540181600801819055503381600a0160008360080154815260200190815260200160002060000160006101000a81548173ffffffffffffffffffffffffffffffffffffffff021916908373ffffffffffffffffffffffffffffffffffffffff1602179055503481600a01600083600801548152602001908152602001600020600101819055508060030154816007015410158160060160006101000a81548160ff02191690831515021790555061296b3330346040518060400160405280600681526020017fe68a95e8b5840000000000000000000000000000000000000000000000000000815250612ff5565b5050565b60005481565b60016020528060005260406000206000915090508060000160009054906101000a900473ffffffffffffffffffffffffffffffffffffffff1690806001018054600181600116156101000203166002900480601f016020809104026020016040519081016040528092919081815260200182805460018160011615610100020316600290048015612a475780601f10612a1c57610100808354040283529160200191612a47565b820191906000526020600020905b815481529060010190602001808311612a2a57829003601f168201915b505050505090806002018054600181600116156101000203166002900480601f016020809104026020016040519081016040528092919081815260200182805460018160011615610100020316600290048015612ae55780601f10612aba57610100808354040283529160200191612ae5565b820191906000526020600020905b815481529060010190602001808311612ac857829003601f168201915b5050505050908060030154908060040154908060050154908060060160009054906101000a900460ff16908060060160019054906101000a900460ff1690806007015490806008015490806009015490508b565b6000600460008373ffffffffffffffffffffffffffffffffffffffff1673ffffffffffffffffffffffffffffffffffffffff168152602001908152602001600020805490509050919050565b6060600080600080600080548911158015612ba1575060018910155b612baa57600080fd5b600160008a8152602001908152602001600020600901548811158015612bd1575060018810155b612bda57600080fd5b6000600160008b8152602001908152602001600020600b0160008a8152602001908152602001600020905060008090506000600190505b600160008d8152602001908152602001600020600801548111612cfc578973ffffffffffffffffffffffffffffffffffffffff16600160008e8152602001908152602001600020600a01600083815260200190815260200160002060000160009054906101000a900473ffffffffffffffffffffffffffffffffffffffff1673ffffffffffffffffffffffffffffffffffffffff161415612cef57600160008d8152602001908152602001600020600b0160008c81526020019081526020016000206005016000828152602001908152602001600020549150612cfc565b8080600101915050612c11565b50816000018260010154836002015484600301548560040160009054906101000a900460ff1685858054600181600116156101000203166002900480601f016020809104026020016040519081016040528092919081815260200182805460018160011615610100020316600290048015612db85780601f10612d8d57610100808354040283529160200191612db8565b820191906000526020600020905b815481529060010190602001808311612d9b57829003601f168201915b50505050509550975097509750975097509750505093975093979195509350565b6000806000548411158015612def575060018410155b612e61576040517f08c379a00000000000000000000000000000000000000000000000000000000081526004018080602001828103825260128152602001807f496e76616c69642066756e64696e67204944000000000000000000000000000081525060200191505060405180910390fd5b60016000858152602001908152602001600020600801548311158015612e88575060018310155b612efa576040517f08c379a00000000000000000000000000000000000000000000000000000000081526004018080602001828103825260148152602001807f496e76616c69642066756e64657220696e64657800000000000000000000000081525060200191505060405180910390fd5b600060016000868152602001908152602001600020600a01600085815260200190815260200160002090508060000160009054906101000a900473ffffffffffffffffffffffffffffffffffffffff16816001015481915092509250509250929050565b6060600460008373ffffffffffffffffffffffffffffffffffffffff1673ffffffffffffffffffffffffffffffffffffffff168152602001908152602001600020805480602002602001604051908101604052809291908181526020018280548015612fe957602002820191906000526020600020905b815481526020019060010190808311612fd5575b50505050509050919050565b60026000815480929190600101919050555060006003600060025481526020019081526020016000209050848160000160006101000a81548173ffffffffffffffffffffffffffffffffffffffff021916908373ffffffffffffffffffffffffffffffffffffffff160217905550838160010160006101000a81548173ffffffffffffffffffffffffffffffffffffffff021916908373ffffffffffffffffffffffffffffffffffffffff160217905550828160020181905550428160030181905550818160040190805190602001906130d09291906131e2565b50600460008673ffffffffffffffffffffffffffffffffffffffff1673ffffffffffffffffffffffffffffffffffffffff16815260200190815260200160002060025490806001815401808255809150509060018203906000526020600020016000909192909190915055508373ffffffffffffffffffffffffffffffffffffffff168573ffffffffffffffffffffffffffffffffffffffff16146131db57600460008573ffffffffffffffffffffffffffffffffffffffff1673ffffffffffffffffffffffffffffffffffffffff16815260200190815260200160002060025490806001815401808255809150509060018203906000526020600020016000909192909190915055505b5050505050565b828054600181600116156101000203166002900490600052602060002090601f016020900481019282601f1061322357805160ff1916838001178555613251565b82800160010185558215613251579182015b82811115613250578251825591602001919060010190613235565b5b50905061325e9190613262565b5090565b61328491905b80821115613280576000816000905550600101613268565b5090565b9056fe4f6e6c7920696e69746961746f722063616e2063616e63656c2066756e64696e6743616e6e6f742072657475726e206d6f6e65792066726f6d207375636365737366756c2066756e64696e6752657475726e20616d6f756e74206d7573742062652067726561746572207468616e2030a265627a7a7231582022133079acfa0d49ec20643e5ca2f0abfe505c0392823cf3329873bc906595b164736f6c63430005100032",
  "source": "// SPDX-License-Identifier: MIT\r\npragma solidity >=0.4.22 <0.9.0;\r\n\r\ncontract CrowdFunding {\r\n  \r\n  // \r\n  struct Transaction {\r\n    address from;           // \r\n    address to;            // \r\n    uint amount;          // \r\n    uint timestamp;       // \r\n    string txType;        // //\r\n  }\r\n\r\n  // \r\n  struct Funder {\r\n    address payable addr;   //  address payable \r\n    uint amount;            // \r\n  }\r\n\r\n  // \r\n  struct Use {\r\n    string info;                     // \r\n    uint goal;                       // \r\n    uint agreeAmount;                // \r\n    uint disagree;                   // \r\n    bool over;                       // \r\n    mapping(uint => uint) agree;     //  0: 12\r\n  }\r\n\r\n  // \r\n  struct Funding {\r\n    address payable initiator;       //  address payable \r\n    string title;                    // \r\n    string info;                     // \r\n    uint goal;                       // \r\n    uint startTime;                  // \r\n    uint endTime;                    // \r\n\r\n    bool success;                    //  amount \r\n    bool isCancel;                   // \r\n    uint amount;                     // \r\n    uint numFunders;                 // \r\n    uint numUses;                    // \r\n    mapping(uint => Funder) funders; // \r\n    mapping(uint => Use) uses;       // \r\n  }\r\n\r\n  uint public numFundings;                  // \r\n  mapping(uint => Funding) public fundings; // \r\n\r\n  uint public numTransactions;                      // \r\n  mapping(uint => Transaction) public transactions; // \r\n  mapping(address => uint[]) userTransactions;      // ID\r\n\r\n  /**\r\n   * \r\n   * @param initiator \r\n   * @param title \r\n   * @param info \r\n   * @param goal \r\n   * @param endTime \r\n   */\r\n  function newFunding(address payable initiator, string memory title, string memory info, uint goal, uint endTime) public returns(uint) {\r\n    require(endTime > block.timestamp);\r\n\r\n    numFundings = numFundings + 1;\r\n    Funding storage f = fundings[numFundings];\r\n    f.initiator = initiator;\r\n    f.title = title;\r\n    f.info = info;\r\n    f.goal = goal;\r\n    f.startTime = block.timestamp;\r\n    f.endTime = endTime;\r\n    f.isCancel = false;\r\n    f.success = false;\r\n    f.amount = 0;\r\n    f.numFunders = 0;\r\n    f.numUses = 0;\r\n    \r\n    return numFundings;\r\n  }\r\n\r\n  // \r\n  function recordTransaction(address from, address to, uint amount, string memory txType) internal {\r\n    numTransactions++;\r\n    Transaction storage t = transactions[numTransactions];\r\n    t.from = from;\r\n    t.to = to;\r\n    t.amount = amount;\r\n    t.timestamp = block.timestamp;\r\n    t.txType = txType;\r\n    \r\n    userTransactions[from].push(numTransactions);\r\n    if(from != to) {\r\n      userTransactions[to].push(numTransactions);\r\n    }\r\n  }\r\n\r\n  // \r\n  function getUserTransactionCount(address user) public view returns(uint) {\r\n    return userTransactions[user].length;\r\n  }\r\n\r\n  // ID\r\n  function getUserTransactionIds(address user) public view returns(uint[] memory) {\r\n    return userTransactions[user];\r\n  }\r\n\r\n  // \r\n  function getTransaction(uint id) public view returns(address, address, uint, uint, string memory) {\r\n    require(id > 0 && id <= numTransactions, \"Invalid transaction ID\");\r\n    Transaction storage t = transactions[id];\r\n    return (t.from, t.to, t.amount, t.timestamp, t.txType);\r\n  }\r\n\r\n  function contribute(uint ID) public payable {\r\n    // 0\r\n    require(msg.value > 0 && msg.value <= fundings[ID].goal - fundings[ID].amount);\r\n    // \r\n    require(fundings[ID].endTime > block.timestamp);\r\n    // \r\n    require(fundings[ID].success == false);\r\n    Funding storage f = fundings[ID];\r\n    f.amount += msg.value;\r\n    f.numFunders = f.numFunders + 1;\r\n    f.funders[f.numFunders].addr = msg.sender;\r\n    f.funders[f.numFunders].amount = msg.value;\r\n    // \r\n    f.success = f.amount >= f.goal;\r\n    // \r\n    recordTransaction(msg.sender, address(this), msg.value, \"\");\r\n  }\r\n\r\n  // \r\n  function returnMoney(uint ID, uint returnAmount) public {\r\n    require(ID <= numFundings && ID >= 1, \"Invalid funding ID\");\r\n    require(fundings[ID].success == false, \"Cannot return money from successful funding\");\r\n\r\n    Funding storage f = fundings[ID];\r\n    uint totalInvested = 0;\r\n    \r\n    // \r\n    for(uint i=1; i<=f.numFunders; i++) {\r\n      if(f.funders[i].addr == msg.sender) {\r\n        totalInvested += f.funders[i].amount;\r\n      }\r\n    }\r\n    \r\n    require(totalInvested >= returnAmount, \"Cannot return more than invested\");\r\n    require(returnAmount > 0, \"Return amount must be greater than 0\");\r\n    \r\n    uint remainingToReturn = returnAmount;\r\n    \r\n    // \r\n    for(uint i=f.numFunders; i>=1 && remainingToReturn > 0; i--) {\r\n      if(f.funders[i].addr == msg.sender && f.funders[i].amount > 0) {\r\n        uint currentReturn = remainingToReturn;\r\n        if(currentReturn > f.funders[i].amount) {\r\n          currentReturn = f.funders[i].amount;\r\n        }\r\n        \r\n        f.funders[i].amount -= currentReturn;\r\n        remainingToReturn -= currentReturn;\r\n        f.amount -= currentReturn;\r\n        \r\n        if(remainingToReturn == 0) {\r\n          msg.sender.transfer(returnAmount);\r\n          // \r\n          recordTransaction(address(this), msg.sender, returnAmount, \"\");\r\n          break;\r\n        }\r\n      }\r\n    }\r\n  }\r\n\r\n  function newUse(uint ID, uint goal, string memory info) public {\r\n    require(ID <= numFundings && ID >= 1);\r\n    require(fundings[ID].success == true);\r\n    require(goal <= fundings[ID].amount);\r\n    require(msg.sender == fundings[ID].initiator);\r\n\r\n    Funding storage f = fundings[ID];\r\n    f.numUses = f.numUses + 1;\r\n    f.uses[f.numUses].info = info;\r\n    f.uses[f.numUses].goal = goal;\r\n    f.uses[f.numUses].agreeAmount = 0;\r\n    f.uses[f.numUses].disagree = 0;\r\n    f.uses[f.numUses].over = false;\r\n    f.amount = f.amount - goal;\r\n    \r\n    // \r\n    recordTransaction(address(this), msg.sender, goal, \"\");\r\n  }\r\n\r\n  function agreeUse(uint ID, uint useID, bool agree) public {\r\n    require(ID <= numFundings && ID >= 1);\r\n    require(useID <= fundings[ID].numUses && useID >= 1);\r\n    require(fundings[ID].uses[useID].over == false);\r\n\r\n    for(uint i=1; i<=fundings[ID].numFunders; i++)\r\n      if(fundings[ID].funders[i].addr == msg.sender) {\r\n        if(fundings[ID].uses[useID].agree[i] == 1) {\r\n          fundings[ID].uses[useID].agreeAmount -= fundings[ID].funders[i].amount;\r\n        } else if(fundings[ID].uses[useID].agree[i] == 2) {\r\n          fundings[ID].uses[useID].disagree -= fundings[ID].funders[i].amount;\r\n        }\r\n        if(agree) {\r\n          fundings[ID].uses[useID].agreeAmount += fundings[ID].funders[i].amount;\r\n          fundings[ID].uses[useID].agree[i] = 1;\r\n        }\r\n        else {\r\n          fundings[ID].uses[useID].disagree += fundings[ID].funders[i].amount;\r\n          fundings[ID].uses[useID].agree[i] = 2;\r\n        }\r\n      }\r\n    checkUse(ID, useID);\r\n  }\r\n\r\n  function checkUse(uint ID, uint useID) public {\r\n    require(ID <= numFundings && ID >= 1);\r\n    require(fundings[ID].uses[useID].over == false);\r\n\r\n    if(fundings[ID].uses[useID].agreeAmount >= fundings[ID].goal / 2) {\r\n      fundings[ID].uses[useID].over = true;\r\n      fundings[ID].initiator.transfer(fundings[ID].uses[useID].goal); //  address payable \r\n    }\r\n    if(fundings[ID].uses[useID].disagree > fundings[ID].goal / 2) {\r\n      fundings[ID].amount = fundings[ID].amount + fundings[ID].uses[useID].goal;\r\n      fundings[ID].uses[useID].over = true;\r\n    }\r\n  }\r\n\r\n  function getUseLength(uint ID) public view returns (uint) {\r\n    require(ID <= numFundings && ID >= 1);\r\n\r\n    return fundings[ID].numUses;\r\n  }\r\n\r\n  function getUse(uint ID, uint useID, address addr) public view returns (string memory, uint, uint, uint, bool, uint) {\r\n    require(ID <= numFundings && ID >= 1);\r\n    require(useID <= fundings[ID].numUses && useID >= 1);\r\n\r\n    Use storage u = fundings[ID].uses[useID];\r\n    uint agree = 0;\r\n    for(uint i=1; i<=fundings[ID].numFunders; i++)\r\n      if(fundings[ID].funders[i].addr == addr) {\r\n        agree = fundings[ID].uses[useID].agree[i];\r\n        break;\r\n      }\r\n    return (u.info, u.goal, u.agreeAmount, u.disagree, u.over, agree);\r\n  }\r\n\r\n  function getBalance() public view returns (uint) {\r\n    return address(this).balance;\r\n  }\r\n  \r\n  function getMyFundings(address addr, uint ID) public view returns (uint) {\r\n      uint res = 0;\r\n      for(uint i=1; i<=fundings[ID].numFunders; i++) {\r\n          if(fundings[ID].funders[i].addr == addr)\r\n            res += fundings[ID].funders[i].amount;\r\n      }\r\n      return res;\r\n  } \r\n\r\n  // \r\n  function cancelFunding(uint ID) public {\r\n    require(ID <= numFundings && ID >= 1, \"Invalid funding ID\");\r\n    require(fundings[ID].success == false, \"Cannot cancel successful funding\");\r\n    require(msg.sender == fundings[ID].initiator, \"Only initiator can cancel funding\");\r\n\r\n    Funding storage f = fundings[ID];\r\n    \r\n    // \r\n    for(uint i=1; i<=f.numFunders; i++) {\r\n      if(f.funders[i].amount > 0) {\r\n        uint amount = f.funders[i].amount;\r\n        f.funders[i].addr.transfer(amount);\r\n        \r\n        // \r\n        recordTransaction(address(this), f.funders[i].addr, amount, \"\");\r\n        \r\n        // \r\n        f.funders[i].amount = 0;\r\n      }\r\n    }\r\n    \r\n    // \r\n    f.amount = 0;\r\n    f.isCancel = true;\r\n    f.endTime = block.timestamp;\r\n    // \r\n    recordTransaction(msg.sender, address(this), 0, \"\");\r\n  }\r\n\r\n  // \r\n  function checkTimeoutAndRefund(uint ID) public {\r\n    require(ID <= numFundings && ID >= 1, \"Invalid funding ID\");\r\n    Funding storage f = fundings[ID];\r\n    \r\n    // \r\n    require(block.timestamp > f.endTime, \"Funding not timeout yet\");\r\n    require(!f.success, \"Funding is successful\");\r\n    require(!f.isCancel, \"Funding is already cancelled\");\r\n    \r\n    // \r\n    for(uint i=1; i<=f.numFunders; i++) {\r\n      if(f.funders[i].amount > 0) {\r\n        uint amount = f.funders[i].amount;\r\n        f.funders[i].addr.transfer(amount);\r\n        \r\n        // \r\n        recordTransaction(address(this), f.funders[i].addr, amount, \"\");\r\n        \r\n        // \r\n        f.funders[i].amount = 0;\r\n      }\r\n    }\r\n    // \r\n    f.amount = 0;\r\n  }\r\n\r\n  // \r\n  function getFunderCount(uint ID) public view returns (uint) {\r\n    require(ID <= numFundings && ID >= 1, \"Invalid funding ID\");\r\n    return fundings[ID].numFunders;\r\n  }\r\n\r\n  // \r\n  function getFunder(uint ID, uint funderIndex) public view returns (address, uint) {\r\n    require(ID <= numFundings && ID >= 1, \"Invalid funding ID\");\r\n    require(funderIndex <= fundings[ID].numFunders && funderIndex >= 1, \"Invalid funder index\");\r\n    \r\n    Funder storage funder = fundings[ID].funders[funderIndex];\r\n    return (funder.addr, funder.amount);\r\n  }\r\n}\r\n",
  "sourcePath": "D:\\QQ\\QQfile\\BC\\BC33\\CrowdFunding2\\sloc\\contracts\\CrowdFunding.sol",
  "compiler": {
    "name": "solc",
    "version": "0.5.16+commit.9c3226ce.Emscripten.clang"
  },
  "schemaVersion": "3.4.16",
  "updatedAt": "2025-06-03T14:42:06.973Z",
  "devdoc": {
    "methods": {
      "newFunding(address,string,string,uint256,uint256)": {
        "params": {
          "endTime": "",
          "goal": "",
          "info": "",
          "initiator": "",
          "title": ""
        }
      }
    }
  },
  "userdoc": {
    "methods": {
      "newFunding(address,string,string,uint256,uint256)": {
        "notice": ""
      }
    }
  }
}