{
  "contractName": "CrowdFunding",
  "abi": [
    {
      "constant": true,
      "inputs": [
        {
          "internalType": "uint256",
          "name": "",
          "type": "uint256"
        }
      ],
      "name": "fundings",
      "outputs": [
        {
          "internalType": "address payable",
          "name": "initiator",
          "type": "address"
        },
        {
          "internalType": "string",
          "name": "title",
          "type": "string"
        },
        {
          "internalType": "string",
          "name": "info",
          "type": "string"
        },
        {
          "internalType": "uint256",
          "name": "goal",
          "type": "uint256"
        },
        {
          "internalType": "uint256",
          "name": "endTime",
          "type": "uint256"
        },
        {
          "internalType": "bool",
          "name": "success",
          "type": "bool"
        },
        {
          "internalType": "uint256",
          "name": "amount",
          "type": "uint256"
        },
        {
          "internalType": "uint256",
          "name": "numFunders",
          "type": "uint256"
        },
        {
          "internalType": "uint256",
          "name": "numUses",
          "type": "uint256"
        }
      ],
      "payable": false,
      "stateMutability": "view",
      "type": "function"
    },
    {
      "constant": true,
      "inputs": [],
      "name": "numFundings",
      "outputs": [
        {
          "internalType": "uint256",
          "name": "",
          "type": "uint256"
        }
      ],
      "payable": false,
      "stateMutability": "view",
      "type": "function"
    },
    {
      "constant": true,
      "inputs": [],
      "name": "numTransactions",
      "outputs": [
        {
          "internalType": "uint256",
          "name": "",
          "type": "uint256"
        }
      ],
      "payable": false,
      "stateMutability": "view",
      "type": "function"
    },
    {
      "constant": true,
      "inputs": [
        {
          "internalType": "uint256",
          "name": "",
          "type": "uint256"
        }
      ],
      "name": "transactions",
      "outputs": [
        {
          "internalType": "address",
          "name": "from",
          "type": "address"
        },
        {
          "internalType": "address",
          "name": "to",
          "type": "address"
        },
        {
          "internalType": "uint256",
          "name": "amount",
          "type": "uint256"
        },
        {
          "internalType": "uint256",
          "name": "timestamp",
          "type": "uint256"
        },
        {
          "internalType": "string",
          "name": "txType",
          "type": "string"
        }
      ],
      "payable": false,
      "stateMutability": "view",
      "type": "function"
    },
    {
      "constant": false,
      "inputs": [
        {
          "internalType": "address payable",
          "name": "initiator",
          "type": "address"
        },
        {
          "internalType": "string",
          "name": "title",
          "type": "string"
        },
        {
          "internalType": "string",
          "name": "info",
          "type": "string"
        },
        {
          "internalType": "uint256",
          "name": "goal",
          "type": "uint256"
        },
        {
          "internalType": "uint256",
          "name": "endTime",
          "type": "uint256"
        }
      ],
      "name": "newFunding",
      "outputs": [
        {
          "internalType": "uint256",
          "name": "",
          "type": "uint256"
        }
      ],
      "payable": false,
      "stateMutability": "nonpayable",
      "type": "function"
    },
    {
      "constant": true,
      "inputs": [
        {
          "internalType": "address",
          "name": "user",
          "type": "address"
        }
      ],
      "name": "getUserTransactionCount",
      "outputs": [
        {
          "internalType": "uint256",
          "name": "",
          "type": "uint256"
        }
      ],
      "payable": false,
      "stateMutability": "view",
      "type": "function"
    },
    {
      "constant": true,
      "inputs": [
        {
          "internalType": "address",
          "name": "user",
          "type": "address"
        }
      ],
      "name": "getUserTransactionIds",
      "outputs": [
        {
          "internalType": "uint256[]",
          "name": "",
          "type": "uint256[]"
        }
      ],
      "payable": false,
      "stateMutability": "view",
      "type": "function"
    },
    {
      "constant": true,
      "inputs": [
        {
          "internalType": "uint256",
          "name": "id",
          "type": "uint256"
        }
      ],
      "name": "getTransaction",
      "outputs": [
        {
          "internalType": "address",
          "name": "",
          "type": "address"
        },
        {
          "internalType": "address",
          "name": "",
          "type": "address"
        },
        {
          "internalType": "uint256",
          "name": "",
          "type": "uint256"
        },
        {
          "internalType": "uint256",
          "name": "",
          "type": "uint256"
        },
        {
          "internalType": "string",
          "name": "",
          "type": "string"
        }
      ],
      "payable": false,
      "stateMutability": "view",
      "type": "function"
    },
    {
      "constant": false,
      "inputs": [
        {
          "internalType": "uint256",
          "name": "ID",
          "type": "uint256"
        }
      ],
      "name": "contribute",
      "outputs": [],
      "payable": true,
      "stateMutability": "payable",
      "type": "function"
    },
    {
      "constant": false,
      "inputs": [
        {
          "internalType": "uint256",
          "name": "ID",
          "type": "uint256"
        },
        {
          "internalType": "uint256",
          "name": "returnAmount",
          "type": "uint256"
        }
      ],
      "name": "returnMoney",
      "outputs": [],
      "payable": false,
      "stateMutability": "nonpayable",
      "type": "function"
    },
    {
      "constant": false,
      "inputs": [
        {
          "internalType": "uint256",
          "name": "ID",
          "type": "uint256"
        },
        {
          "internalType": "uint256",
          "name": "goal",
          "type": "uint256"
        },
        {
          "internalType": "string",
          "name": "info",
          "type": "string"
        }
      ],
      "name": "newUse",
      "outputs": [],
      "payable": false,
      "stateMutability": "nonpayable",
      "type": "function"
    },
    {
      "constant": false,
      "inputs": [
        {
          "internalType": "uint256",
          "name": "ID",
          "type": "uint256"
        },
        {
          "internalType": "uint256",
          "name": "useID",
          "type": "uint256"
        },
        {
          "internalType": "bool",
          "name": "agree",
          "type": "bool"
        }
      ],
      "name": "agreeUse",
      "outputs": [],
      "payable": false,
      "stateMutability": "nonpayable",
      "type": "function"
    },
    {
      "constant": false,
      "inputs": [
        {
          "internalType": "uint256",
          "name": "ID",
          "type": "uint256"
        },
        {
          "internalType": "uint256",
          "name": "useID",
          "type": "uint256"
        }
      ],
      "name": "checkUse",
      "outputs": [],
      "payable": false,
      "stateMutability": "nonpayable",
      "type": "function"
    },
    {
      "constant": true,
      "inputs": [
        {
          "internalType": "uint256",
          "name": "ID",
          "type": "uint256"
        }
      ],
      "name": "getUseLength",
      "outputs": [
        {
          "internalType": "uint256",
          "name": "",
          "type": "uint256"
        }
      ],
      "payable": false,
      "stateMutability": "view",
      "type": "function"
    },
    {
      "constant": true,
      "inputs": [
        {
          "internalType": "uint256",
          "name": "ID",
          "type": "uint256"
        },
        {
          "internalType": "uint256",
          "name": "useID",
          "type": "uint256"
        },
        {
          "internalType": "address",
          "name": "addr",
          "type": "address"
        }
      ],
      "name": "getUse",
      "outputs": [
        {
          "internalType": "string",
          "name": "",
          "type": "string"
        },
        {
          "internalType": "uint256",
          "name": "",
          "type": "uint256"
        },
        {
          "internalType": "uint256",
          "name": "",
          "type": "uint256"
        },
        {
          "internalType": "uint256",
          "name": "",
          "type": "uint256"
        },
        {
          "internalType": "bool",
          "name": "",
          "type": "bool"
        },
        {
          "internalType": "uint256",
          "name": "",
          "type": "uint256"
        }
      ],
      "payable": false,
      "stateMutability": "view",
      "type": "function"
    },
    {
      "constant": true,
      "inputs": [],
      "name": "getBalance",
      "outputs": [
        {
          "internalType": "uint256",
          "name": "",
          "type": "uint256"
        }
      ],
      "payable": false,
      "stateMutability": "view",
      "type": "function"
    },
    {
      "constant": true,
      "inputs": [
        {
          "internalType": "address",
          "name": "addr",
          "type": "address"
        },
        {
          "internalType": "uint256",
          "name": "ID",
          "type": "uint256"
        }
      ],
      "name": "getMyFundings",
      "outputs": [
        {
          "internalType": "uint256",
          "name": "",
          "type": "uint256"
        }
      ],
      "payable": false,
      "stateMutability": "view",
      "type": "function"
    },
    {
      "constant": false,
      "inputs": [
        {
          "internalType": "uint256",
          "name": "ID",
          "type": "uint256"
        }
      ],
      "name": "cancelFunding",
      "outputs": [],
      "payable": false,
      "stateMutability": "nonpayable",
      "type": "function"
    }
  ],
  "bytecode": "0x608060405234801561001057600080fd5b50612bbb806100206000396000f3fe6080604052600436106101095760003560e01c80638f74935f11610095578063c70a2d7911610064578063c70a2d7914610839578063d13cb1fb14610864578063d8f33840146109e5578063ee40f60d14610a4a578063fb9e9d9a14610b4f57610109565b80638f74935f1461051157806390b4cc72146106b85780639ace38c2146106e3578063c1cbbca71461080b57610109565b80633c698349116100dc5780633c6983491461037857806357531ea2146103c7578063716f71471461041857806388642860146104875780638a23e047146104cc57610109565b806305e1c4251461010e57806312065fe014610149578063164b2fb31461017457806333ea3dc814610250575b600080fd5b34801561011a57600080fd5b506101476004803603602081101561013157600080fd5b8101908080359060200190929190505050610bf5565b005b34801561015557600080fd5b5061015e610fb7565b6040518082815260200191505060405180910390f35b34801561018057600080fd5b5061024e6004803603606081101561019757600080fd5b810190808035906020019092919080359060200190929190803590602001906401000000008111156101c857600080fd5b8201836020820111156101da57600080fd5b803590602001918460018302840111640100000000831117156101fc57600080fd5b91908080601f016020809104026020016040519081016040528093929190818152602001838380828437600081840152601f19601f820116905080830192505050505050509192919290505050610fbf565b005b34801561025c57600080fd5b506102896004803603602081101561027357600080fd5b81019080803590602001909291905050506111e8565b604051808673ffffffffffffffffffffffffffffffffffffffff1673ffffffffffffffffffffffffffffffffffffffff1681526020018573ffffffffffffffffffffffffffffffffffffffff1673ffffffffffffffffffffffffffffffffffffffff16815260200184815260200183815260200180602001828103825283818151815260200191508051906020019080838360005b8381101561033957808201518184015260208101905061031e565b50505050905090810190601f1680156103665780820380516001836020036101000a031916815260200191505b50965050505050505060405180910390f35b34801561038457600080fd5b506103b16004803603602081101561039b57600080fd5b8101908080359060200190929190505050611393565b6040518082815260200191505060405180910390f35b3480156103d357600080fd5b50610416600480360360608110156103ea57600080fd5b8101908080359060200190929190803590602001909291908035151590602001909291905050506113ce565b005b34801561042457600080fd5b506104716004803603604081101561043b57600080fd5b81019080803573ffffffffffffffffffffffffffffffffffffffff169060200190929190803590602001909291905050506117c5565b6040518082815260200191505060405180910390f35b34801561049357600080fd5b506104ca600480360360408110156104aa57600080fd5b8101908080359060200190929190803590602001909291905050506118b6565b005b3480156104d857600080fd5b5061050f600480360360408110156104ef57600080fd5b810190808035906020019092919080359060200190929190505050611d32565b005b34801561051d57600080fd5b506106a2600480360360a081101561053457600080fd5b81019080803573ffffffffffffffffffffffffffffffffffffffff1690602001909291908035906020019064010000000081111561057157600080fd5b82018360208201111561058357600080fd5b803590602001918460018302840111640100000000831117156105a557600080fd5b91908080601f016020809104026020016040519081016040528093929190818152602001838380828437600081840152601f19601f8201169050808301925050505050505091929192908035906020019064010000000081111561060857600080fd5b82018360208201111561061a57600080fd5b8035906020019184600183028401116401000000008311171561063c57600080fd5b91908080601f016020809104026020016040519081016040528093929190818152602001838380828437600081840152601f19601f8201169050808301925050505050505091929192908035906020019092919080359060200190929190505050611fc7565b6040518082815260200191505060405180910390f35b3480156106c457600080fd5b506106cd6120ca565b6040518082815260200191505060405180910390f35b3480156106ef57600080fd5b5061071c6004803603602081101561070657600080fd5b81019080803590602001909291905050506120d0565b604051808673ffffffffffffffffffffffffffffffffffffffff1673ffffffffffffffffffffffffffffffffffffffff1681526020018573ffffffffffffffffffffffffffffffffffffffff1673ffffffffffffffffffffffffffffffffffffffff16815260200184815260200183815260200180602001828103825283818151815260200191508051906020019080838360005b838110156107cc5780820151818401526020810190506107b1565b50505050905090810190601f1680156107f95780820380516001836020036101000a031916815260200191505b50965050505050505060405180910390f35b6108376004803603602081101561082157600080fd5b81019080803590602001909291905050506121de565b005b34801561084557600080fd5b5061084e61239c565b6040518082815260200191505060405180910390f35b34801561087057600080fd5b5061089d6004803603602081101561088757600080fd5b81019080803590602001909291905050506123a2565b604051808a73ffffffffffffffffffffffffffffffffffffffff1673ffffffffffffffffffffffffffffffffffffffff16815260200180602001806020018981526020018881526020018715151515815260200186815260200185815260200184815260200183810383528b818151815260200191508051906020019080838360005b8381101561093b578082015181840152602081019050610920565b50505050905090810190601f1680156109685780820380516001836020036101000a031916815260200191505b5083810382528a818151815260200191508051906020019080838360005b838110156109a1578082015181840152602081019050610986565b50505050905090810190601f1680156109ce5780820380516001836020036101000a031916815260200191505b509b50505050505050505050505060405180910390f35b3480156109f157600080fd5b50610a3460048036036020811015610a0857600080fd5b81019080803573ffffffffffffffffffffffffffffffffffffffff16906020019092919050505061254d565b6040518082815260200191505060405180910390f35b348015610a5657600080fd5b50610aad60048036036060811015610a6d57600080fd5b810190808035906020019092919080359060200190929190803573ffffffffffffffffffffffffffffffffffffffff169060200190929190505050612599565b604051808060200187815260200186815260200185815260200184151515158152602001838152602001828103825288818151815260200191508051906020019080838360005b83811015610b0f578082015181840152602081019050610af4565b50505050905090810190601f168015610b3c5780820380516001836020036101000a031916815260200191505b5097505050505050505060405180910390f35b348015610b5b57600080fd5b50610b9e60048036036020811015610b7257600080fd5b81019080803573ffffffffffffffffffffffffffffffffffffffff1690602001909291905050506127ed565b6040518080602001828103825283818151815260200191508051906020019060200280838360005b83811015610be1578082015181840152602081019050610bc6565b505050509050019250505060405180910390f35b6000548111158015610c08575060018110155b610c7a576040517f08c379a00000000000000000000000000000000000000000000000000000000081526004018080602001828103825260128152602001807f496e76616c69642066756e64696e67204944000000000000000000000000000081525060200191505060405180910390fd5b600015156001600083815260200190815260200160002060050160009054906101000a900460ff16151514610d17576040517f08c379a00000000000000000000000000000000000000000000000000000000081526004018080602001828103825260208152602001807f43616e6e6f742063616e63656c207375636365737366756c2066756e64696e6781525060200191505060405180910390fd5b6001600082815260200190815260200160002060000160009054906101000a900473ffffffffffffffffffffffffffffffffffffffff1673ffffffffffffffffffffffffffffffffffffffff163373ffffffffffffffffffffffffffffffffffffffff1614610dd1576040517f08c379a0000000000000000000000000000000000000000000000000000000008152600401808060200182810382526021815260200180612b176021913960400191505060405180910390fd5b60006001600083815260200190815260200160002090506000600190505b81600701548111610f5d576000826009016000838152602001908152602001600020600101541115610f5057600082600901600083815260200190815260200160002060010154905082600901600083815260200190815260200160002060000160009054906101000a900473ffffffffffffffffffffffffffffffffffffffff1673ffffffffffffffffffffffffffffffffffffffff166108fc829081150290604051600060405180830381858888f19350505050158015610eb6573d6000803e3d6000fd5b50610f303084600901600085815260200190815260200160002060000160009054906101000a900473ffffffffffffffffffffffffffffffffffffffff16836040518060400160405280601281526020017fe4bc97e7adb9e58f96e6b688e98080e6acbe0000000000000000000000000000815250612884565b600083600901600084815260200190815260200160002060010181905550505b8080600101915050610def565b5060008160060181905550428160040181905550610fb3333060006040518060400160405280600c81526020017fe58f96e6b688e4bc97e7adb90000000000000000000000000000000000000000815250612884565b5050565b600047905090565b6000548311158015610fd2575060018310155b610fdb57600080fd5b600115156001600085815260200190815260200160002060050160009054906101000a900460ff1615151461100f57600080fd5b600160008481526020019081526020016000206006015482111561103257600080fd5b6001600084815260200190815260200160002060000160009054906101000a900473ffffffffffffffffffffffffffffffffffffffff1673ffffffffffffffffffffffffffffffffffffffff163373ffffffffffffffffffffffffffffffffffffffff16146110a057600080fd5b6000600160008581526020019081526020016000209050600181600801540181600801819055508181600a0160008360080154815260200190815260200160002060000190805190602001906110f7929190612a71565b508281600a0160008360080154815260200190815260200160002060010181905550600081600a0160008360080154815260200190815260200160002060020181905550600081600a0160008360080154815260200190815260200160002060030181905550600081600a0160008360080154815260200190815260200160002060040160006101000a81548160ff0219169083151502179055508281600601540381600601819055506111e23033856040518060400160405280600c81526020017fe4bdbfe794a8e8b584e987910000000000000000000000000000000000000000815250612884565b50505050565b600080600080606060008611801561120257506002548611155b611274576040517f08c379a00000000000000000000000000000000000000000000000000000000081526004018080602001828103825260168152602001807f496e76616c6964207472616e73616374696f6e2049440000000000000000000081525060200191505060405180910390fd5b60006003600088815260200190815260200160002090508060000160009054906101000a900473ffffffffffffffffffffffffffffffffffffffff168160010160009054906101000a900473ffffffffffffffffffffffffffffffffffffffff168260020154836003015484600401808054600181600116156101000203166002900480601f0160208091040260200160405190810160405280929190818152602001828054600181600116156101000203166002900480156113785780601f1061134d57610100808354040283529160200191611378565b820191906000526020600020905b81548152906001019060200180831161135b57829003601f168201915b50505050509050955095509550955095505091939590929450565b6000805482111580156113a7575060018210155b6113b057600080fd5b60016000838152602001908152602001600020600801549050919050565b60005483111580156113e1575060018310155b6113ea57600080fd5b60016000848152602001908152602001600020600801548211158015611411575060018210155b61141a57600080fd5b6000151560016000858152602001908152602001600020600a01600084815260200190815260200160002060040160009054906101000a900460ff1615151461146257600080fd5b6000600190505b600160008581526020019081526020016000206007015481116117b5573373ffffffffffffffffffffffffffffffffffffffff1660016000868152602001908152602001600020600901600083815260200190815260200160002060000160009054906101000a900473ffffffffffffffffffffffffffffffffffffffff1673ffffffffffffffffffffffffffffffffffffffff1614156117a8576001806000868152602001908152602001600020600a01600085815260200190815260200160002060050160008381526020019081526020016000205414156115ae576001600085815260200190815260200160002060090160008281526020019081526020016000206001015460016000868152602001908152602001600020600a01600085815260200190815260200160002060020160008282540392505081905550611656565b600260016000868152602001908152602001600020600a0160008581526020019081526020016000206005016000838152602001908152602001600020541415611655576001600085815260200190815260200160002060090160008281526020019081526020016000206001015460016000868152602001908152602001600020600a016000858152602001908152602001600020600301600082825403925050819055505b5b8115611703576001600085815260200190815260200160002060090160008281526020019081526020016000206001015460016000868152602001908152602001600020600a016000858152602001908152602001600020600201600082825401925050819055506001806000868152602001908152602001600020600a0160008581526020019081526020016000206005016000838152602001908152602001600020819055506117a7565b6001600085815260200190815260200160002060090160008281526020019081526020016000206001015460016000868152602001908152602001600020600a01600085815260200190815260200160002060030160008282540192505081905550600260016000868152602001908152602001600020600a0160008581526020019081526020016000206005016000838152602001908152602001600020819055505b5b8080600101915050611469565b506117c08383611d32565b505050565b600080600090506000600190505b600160008581526020019081526020016000206007015481116118ab578473ffffffffffffffffffffffffffffffffffffffff1660016000868152602001908152602001600020600901600083815260200190815260200160002060000160009054906101000a900473ffffffffffffffffffffffffffffffffffffffff1673ffffffffffffffffffffffffffffffffffffffff16141561189e5760016000858152602001908152602001600020600901600082815260200190815260200160002060010154820191505b80806001019150506117d3565b508091505092915050565b60005482111580156118c9575060018210155b61193b576040517f08c379a00000000000000000000000000000000000000000000000000000000081526004018080602001828103825260128152602001807f496e76616c69642066756e64696e67204944000000000000000000000000000081525060200191505060405180910390fd5b600015156001600084815260200190815260200160002060050160009054906101000a900460ff161515146119bb576040517f08c379a000000000000000000000000000000000000000000000000000000000815260040180806020018281038252602b815260200180612b38602b913960400191505060405180910390fd5b600060016000848152602001908152602001600020905060008090506000600190505b82600701548111611a80573373ffffffffffffffffffffffffffffffffffffffff1683600901600083815260200190815260200160002060000160009054906101000a900473ffffffffffffffffffffffffffffffffffffffff1673ffffffffffffffffffffffffffffffffffffffff161415611a735782600901600082815260200190815260200160002060010154820191505b80806001019150506119de565b5082811015611af7576040517f08c379a00000000000000000000000000000000000000000000000000000000081526004018080602001828103825260208152602001807f43616e6e6f742072657475726e206d6f7265207468616e20696e76657374656481525060200191505060405180910390fd5b60008311611b50576040517f08c379a0000000000000000000000000000000000000000000000000000000008152600401808060200182810382526024815260200180612b636024913960400191505060405180910390fd5b60008390506000836007015490505b60018110158015611b705750600082115b15611d2a573373ffffffffffffffffffffffffffffffffffffffff1684600901600083815260200190815260200160002060000160009054906101000a900473ffffffffffffffffffffffffffffffffffffffff1673ffffffffffffffffffffffffffffffffffffffff16148015611c005750600084600901600083815260200190815260200160002060010154115b15611d1c57600082905084600901600083815260200190815260200160002060010154811115611c46578460090160008381526020019081526020016000206001015490505b808560090160008481526020019081526020016000206001016000828254039250508190555080830392508085600601600082825403925050819055506000831415611d1a573373ffffffffffffffffffffffffffffffffffffffff166108fc879081150290604051600060405180830381858888f19350505050158015611cd2573d6000803e3d6000fd5b50611d143033886040518060400160405280600681526020017fe98080e6acbe0000000000000000000000000000000000000000000000000000815250612884565b50611d2a565b505b808060019003915050611b5f565b505050505050565b6000548211158015611d45575060018210155b611d4e57600080fd5b6000151560016000848152602001908152602001600020600a01600083815260200190815260200160002060040160009054906101000a900460ff16151514611d9657600080fd5b6002600160008481526020019081526020016000206003015481611db657fe5b0460016000848152602001908152602001600020600a0160008381526020019081526020016000206002015410611ed1576001806000848152602001908152602001600020600a01600083815260200190815260200160002060040160006101000a81548160ff0219169083151502179055506001600083815260200190815260200160002060000160009054906101000a900473ffffffffffffffffffffffffffffffffffffffff1673ffffffffffffffffffffffffffffffffffffffff166108fc60016000858152602001908152602001600020600a016000848152602001908152602001600020600101549081150290604051600060405180830381858888f19350505050158015611ecf573d6000803e3d6000fd5b505b6002600160008481526020019081526020016000206003015481611ef157fe5b0460016000848152602001908152602001600020600a016000838152602001908152602001600020600301541115611fc35760016000838152602001908152602001600020600a0160008281526020019081526020016000206001015460016000848152602001908152602001600020600601540160016000848152602001908152602001600020600601819055506001806000848152602001908152602001600020600a01600083815260200190815260200160002060040160006101000a81548160ff0219169083151502179055505b5050565b6000428211611fd557600080fd5b600160005401600081905550600060016000805481526020019081526020016000209050868160000160006101000a81548173ffffffffffffffffffffffffffffffffffffffff021916908373ffffffffffffffffffffffffffffffffffffffff16021790555085816001019080519060200190612054929190612a71565b508481600201908051906020019061206d929190612a71565b5083816003018190555082816004018190555060008160050160006101000a81548160ff02191690831515021790555060008160060181905550600081600701819055506000816008018190555060005491505095945050505050565b60025481565b60036020528060005260406000206000915090508060000160009054906101000a900473ffffffffffffffffffffffffffffffffffffffff16908060010160009054906101000a900473ffffffffffffffffffffffffffffffffffffffff1690806002015490806003015490806004018054600181600116156101000203166002900480601f0160208091040260200160405190810160405280929190818152602001828054600181600116156101000203166002900480156121d45780601f106121a9576101008083540402835291602001916121d4565b820191906000526020600020905b8154815290600101906020018083116121b757829003601f168201915b5050505050905085565b60003411801561221c575060016000828152602001908152602001600020600601546001600083815260200190815260200160002060030154033411155b61222557600080fd5b4260016000838152602001908152602001600020600401541161224757600080fd5b600015156001600083815260200190815260200160002060050160009054906101000a900460ff1615151461227b57600080fd5b600060016000838152602001908152602001600020905034816006016000828254019250508190555060018160070154018160070181905550338160090160008360070154815260200190815260200160002060000160006101000a81548173ffffffffffffffffffffffffffffffffffffffff021916908373ffffffffffffffffffffffffffffffffffffffff1602179055503481600901600083600701548152602001908152602001600020600101819055508060030154816006015410158160050160006101000a81548160ff0219169083151502179055506123983330346040518060400160405280600681526020017fe68a95e8b5840000000000000000000000000000000000000000000000000000815250612884565b5050565b60005481565b60016020528060005260406000206000915090508060000160009054906101000a900473ffffffffffffffffffffffffffffffffffffffff1690806001018054600181600116156101000203166002900480601f0160208091040260200160405190810160405280929190818152602001828054600181600116156101000203166002900480156124745780601f1061244957610100808354040283529160200191612474565b820191906000526020600020905b81548152906001019060200180831161245757829003601f168201915b505050505090806002018054600181600116156101000203166002900480601f0160208091040260200160405190810160405280929190818152602001828054600181600116156101000203166002900480156125125780601f106124e757610100808354040283529160200191612512565b820191906000526020600020905b8154815290600101906020018083116124f557829003601f168201915b5050505050908060030154908060040154908060050160009054906101000a900460ff16908060060154908060070154908060080154905089565b6000600460008373ffffffffffffffffffffffffffffffffffffffff1673ffffffffffffffffffffffffffffffffffffffff168152602001908152602001600020805490509050919050565b60606000806000806000805489111580156125b5575060018910155b6125be57600080fd5b600160008a81526020019081526020016000206008015488111580156125e5575060018810155b6125ee57600080fd5b6000600160008b8152602001908152602001600020600a0160008a8152602001908152602001600020905060008090506000600190505b600160008d8152602001908152602001600020600701548111612710578973ffffffffffffffffffffffffffffffffffffffff16600160008e8152602001908152602001600020600901600083815260200190815260200160002060000160009054906101000a900473ffffffffffffffffffffffffffffffffffffffff1673ffffffffffffffffffffffffffffffffffffffff16141561270357600160008d8152602001908152602001600020600a0160008c81526020019081526020016000206005016000828152602001908152602001600020549150612710565b8080600101915050612625565b50816000018260010154836002015484600301548560040160009054906101000a900460ff1685858054600181600116156101000203166002900480601f0160208091040260200160405190810160405280929190818152602001828054600181600116156101000203166002900480156127cc5780601f106127a1576101008083540402835291602001916127cc565b820191906000526020600020905b8154815290600101906020018083116127af57829003601f168201915b50505050509550975097509750975097509750505093975093979195509350565b6060600460008373ffffffffffffffffffffffffffffffffffffffff1673ffffffffffffffffffffffffffffffffffffffff16815260200190815260200160002080548060200260200160405190810160405280929190818152602001828054801561287857602002820191906000526020600020905b815481526020019060010190808311612864575b50505050509050919050565b60026000815480929190600101919050555060006003600060025481526020019081526020016000209050848160000160006101000a81548173ffffffffffffffffffffffffffffffffffffffff021916908373ffffffffffffffffffffffffffffffffffffffff160217905550838160010160006101000a81548173ffffffffffffffffffffffffffffffffffffffff021916908373ffffffffffffffffffffffffffffffffffffffff1602179055508281600201819055504281600301819055508181600401908051906020019061295f929190612a71565b50600460008673ffffffffffffffffffffffffffffffffffffffff1673ffffffffffffffffffffffffffffffffffffffff16815260200190815260200160002060025490806001815401808255809150509060018203906000526020600020016000909192909190915055508373ffffffffffffffffffffffffffffffffffffffff168573ffffffffffffffffffffffffffffffffffffffff1614612a6a57600460008573ffffffffffffffffffffffffffffffffffffffff1673ffffffffffffffffffffffffffffffffffffffff16815260200190815260200160002060025490806001815401808255809150509060018203906000526020600020016000909192909190915055505b5050505050565b828054600181600116156101000203166002900490600052602060002090601f016020900481019282601f10612ab257805160ff1916838001178555612ae0565b82800160010185558215612ae0579182015b82811115612adf578251825591602001919060010190612ac4565b5b509050612aed9190612af1565b5090565b612b1391905b80821115612b0f576000816000905550600101612af7565b5090565b9056fe4f6e6c7920696e69746961746f722063616e2063616e63656c2066756e64696e6743616e6e6f742072657475726e206d6f6e65792066726f6d207375636365737366756c2066756e64696e6752657475726e20616d6f756e74206d7573742062652067726561746572207468616e2030a265627a7a72315820f1343f233effe807d7e87af3354abd045f8d6dd888f4423ec85f9d30ad17126c64736f6c63430005100032",
  "source": "// SPDX-License-Identifier: MIT\r\npragma solidity >=0.4.22 <0.9.0;\r\n\r\ncontract CrowdFunding {\r\n  \r\n  // \r\n  struct Transaction {\r\n    address from;           // \r\n    address to;            // \r\n    uint amount;          // \r\n    uint timestamp;       // \r\n    string txType;        // //\r\n  }\r\n\r\n  // \r\n  struct Funder {\r\n    address payable addr;   //  address payable \r\n    uint amount;            // \r\n  }\r\n\r\n  // \r\n  struct Use {\r\n    string info;                     // \r\n    uint goal;                       // \r\n    uint agreeAmount;                // \r\n    uint disagree;                   // \r\n    bool over;                       // \r\n    mapping(uint => uint) agree;     //  0: 12\r\n  }\r\n\r\n  // \r\n  struct Funding {\r\n    address payable initiator;       //  address payable \r\n    string title;                    // \r\n    string info;                     // \r\n    uint goal;                       // \r\n    uint endTime;                    // \r\n\r\n    bool success;                    //  amount \r\n\r\n    uint amount;                     // \r\n    uint numFunders;                 // \r\n    uint numUses;                    // \r\n    mapping(uint => Funder) funders; // \r\n    mapping(uint => Use) uses;       // \r\n  }\r\n\r\n  uint public numFundings;                  // \r\n  mapping(uint => Funding) public fundings; // \r\n\r\n  uint public numTransactions;                      // \r\n  mapping(uint => Transaction) public transactions; // \r\n  mapping(address => uint[]) userTransactions;      // ID\r\n\r\n  /**\r\n   * \r\n   * @param initiator \r\n   * @param title \r\n   * @param info \r\n   * @param goal \r\n   * @param endTime \r\n   */\r\n  function newFunding(address payable initiator, string memory title, string memory info, uint goal, uint endTime) public returns(uint) {\r\n    require(endTime > block.timestamp);\r\n\r\n    numFundings = numFundings + 1;\r\n    Funding storage f = fundings[numFundings];\r\n    f.initiator = initiator;\r\n    f.title = title;\r\n    f.info = info;\r\n    f.goal = goal;\r\n    f.endTime = endTime;\r\n    f.success = false;\r\n    f.amount = 0;\r\n    f.numFunders = 0;\r\n    f.numUses = 0;\r\n    \r\n    return numFundings;\r\n  }\r\n\r\n  // \r\n  function recordTransaction(address from, address to, uint amount, string memory txType) internal {\r\n    numTransactions++;\r\n    Transaction storage t = transactions[numTransactions];\r\n    t.from = from;\r\n    t.to = to;\r\n    t.amount = amount;\r\n    t.timestamp = block.timestamp;\r\n    t.txType = txType;\r\n    \r\n    userTransactions[from].push(numTransactions);\r\n    if(from != to) {\r\n      userTransactions[to].push(numTransactions);\r\n    }\r\n  }\r\n\r\n  // \r\n  function getUserTransactionCount(address user) public view returns(uint) {\r\n    return userTransactions[user].length;\r\n  }\r\n\r\n  // ID\r\n  function getUserTransactionIds(address user) public view returns(uint[] memory) {\r\n    return userTransactions[user];\r\n  }\r\n\r\n  // \r\n  function getTransaction(uint id) public view returns(address, address, uint, uint, string memory) {\r\n    require(id > 0 && id <= numTransactions, \"Invalid transaction ID\");\r\n    Transaction storage t = transactions[id];\r\n    return (t.from, t.to, t.amount, t.timestamp, t.txType);\r\n  }\r\n\r\n  function contribute(uint ID) public payable {\r\n    // 0\r\n    require(msg.value > 0 && msg.value <= fundings[ID].goal - fundings[ID].amount);\r\n    // \r\n    require(fundings[ID].endTime > block.timestamp);\r\n    // \r\n    require(fundings[ID].success == false);\r\n    Funding storage f = fundings[ID];\r\n    f.amount += msg.value;\r\n    f.numFunders = f.numFunders + 1;\r\n    f.funders[f.numFunders].addr = msg.sender;\r\n    f.funders[f.numFunders].amount = msg.value;\r\n    // \r\n    f.success = f.amount >= f.goal;\r\n    // \r\n    recordTransaction(msg.sender, address(this), msg.value, \"\");\r\n  }\r\n\r\n  // \r\n  function returnMoney(uint ID, uint returnAmount) public {\r\n    require(ID <= numFundings && ID >= 1, \"Invalid funding ID\");\r\n    require(fundings[ID].success == false, \"Cannot return money from successful funding\");\r\n\r\n    Funding storage f = fundings[ID];\r\n    uint totalInvested = 0;\r\n    \r\n    // \r\n    for(uint i=1; i<=f.numFunders; i++) {\r\n      if(f.funders[i].addr == msg.sender) {\r\n        totalInvested += f.funders[i].amount;\r\n      }\r\n    }\r\n    \r\n    require(totalInvested >= returnAmount, \"Cannot return more than invested\");\r\n    require(returnAmount > 0, \"Return amount must be greater than 0\");\r\n    \r\n    uint remainingToReturn = returnAmount;\r\n    \r\n    // \r\n    for(uint i=f.numFunders; i>=1 && remainingToReturn > 0; i--) {\r\n      if(f.funders[i].addr == msg.sender && f.funders[i].amount > 0) {\r\n        uint currentReturn = remainingToReturn;\r\n        if(currentReturn > f.funders[i].amount) {\r\n          currentReturn = f.funders[i].amount;\r\n        }\r\n        \r\n        f.funders[i].amount -= currentReturn;\r\n        remainingToReturn -= currentReturn;\r\n        f.amount -= currentReturn;\r\n        \r\n        if(remainingToReturn == 0) {\r\n          msg.sender.transfer(returnAmount);\r\n          // \r\n          recordTransaction(address(this), msg.sender, returnAmount, \"\");\r\n          break;\r\n        }\r\n      }\r\n    }\r\n  }\r\n\r\n  function newUse(uint ID, uint goal, string memory info) public {\r\n    require(ID <= numFundings && ID >= 1);\r\n    require(fundings[ID].success == true);\r\n    require(goal <= fundings[ID].amount);\r\n    require(msg.sender == fundings[ID].initiator);\r\n\r\n    Funding storage f = fundings[ID];\r\n    f.numUses = f.numUses + 1;\r\n    f.uses[f.numUses].info = info;\r\n    f.uses[f.numUses].goal = goal;\r\n    f.uses[f.numUses].agreeAmount = 0;\r\n    f.uses[f.numUses].disagree = 0;\r\n    f.uses[f.numUses].over = false;\r\n    f.amount = f.amount - goal;\r\n    \r\n    // \r\n    recordTransaction(address(this), msg.sender, goal, \"\");\r\n  }\r\n\r\n  function agreeUse(uint ID, uint useID, bool agree) public {\r\n    require(ID <= numFundings && ID >= 1);\r\n    require(useID <= fundings[ID].numUses && useID >= 1);\r\n    require(fundings[ID].uses[useID].over == false);\r\n\r\n    for(uint i=1; i<=fundings[ID].numFunders; i++)\r\n      if(fundings[ID].funders[i].addr == msg.sender) {\r\n        if(fundings[ID].uses[useID].agree[i] == 1) {\r\n          fundings[ID].uses[useID].agreeAmount -= fundings[ID].funders[i].amount;\r\n        } else if(fundings[ID].uses[useID].agree[i] == 2) {\r\n          fundings[ID].uses[useID].disagree -= fundings[ID].funders[i].amount;\r\n        }\r\n        if(agree) {\r\n          fundings[ID].uses[useID].agreeAmount += fundings[ID].funders[i].amount;\r\n          fundings[ID].uses[useID].agree[i] = 1;\r\n        }\r\n        else {\r\n          fundings[ID].uses[useID].disagree += fundings[ID].funders[i].amount;\r\n          fundings[ID].uses[useID].agree[i] = 2;\r\n        }\r\n      }\r\n    checkUse(ID, useID);\r\n  }\r\n\r\n  function checkUse(uint ID, uint useID) public {\r\n    require(ID <= numFundings && ID >= 1);\r\n    require(fundings[ID].uses[useID].over == false);\r\n\r\n    if(fundings[ID].uses[useID].agreeAmount >= fundings[ID].goal / 2) {\r\n      fundings[ID].uses[useID].over = true;\r\n      fundings[ID].initiator.transfer(fundings[ID].uses[useID].goal); //  address payable \r\n    }\r\n    if(fundings[ID].uses[useID].disagree > fundings[ID].goal / 2) {\r\n      fundings[ID].amount = fundings[ID].amount + fundings[ID].uses[useID].goal;\r\n      fundings[ID].uses[useID].over = true;\r\n    }\r\n  }\r\n\r\n  function getUseLength(uint ID) public view returns (uint) {\r\n    require(ID <= numFundings && ID >= 1);\r\n\r\n    return fundings[ID].numUses;\r\n  }\r\n\r\n  function getUse(uint ID, uint useID, address addr) public view returns (string memory, uint, uint, uint, bool, uint) {\r\n    require(ID <= numFundings && ID >= 1);\r\n    require(useID <= fundings[ID].numUses && useID >= 1);\r\n\r\n    Use storage u = fundings[ID].uses[useID];\r\n    uint agree = 0;\r\n    for(uint i=1; i<=fundings[ID].numFunders; i++)\r\n      if(fundings[ID].funders[i].addr == addr) {\r\n        agree = fundings[ID].uses[useID].agree[i];\r\n        break;\r\n      }\r\n    return (u.info, u.goal, u.agreeAmount, u.disagree, u.over, agree);\r\n  }\r\n\r\n  function getBalance() public view returns (uint) {\r\n    return address(this).balance;\r\n  }\r\n  \r\n  function getMyFundings(address addr, uint ID) public view returns (uint) {\r\n      uint res = 0;\r\n      for(uint i=1; i<=fundings[ID].numFunders; i++) {\r\n          if(fundings[ID].funders[i].addr == addr)\r\n            res += fundings[ID].funders[i].amount;\r\n      }\r\n      return res;\r\n  } \r\n\r\n  // \r\n  function cancelFunding(uint ID) public {\r\n    require(ID <= numFundings && ID >= 1, \"Invalid funding ID\");\r\n    require(fundings[ID].success == false, \"Cannot cancel successful funding\");\r\n    require(msg.sender == fundings[ID].initiator, \"Only initiator can cancel funding\");\r\n\r\n    Funding storage f = fundings[ID];\r\n    \r\n    // \r\n    for(uint i=1; i<=f.numFunders; i++) {\r\n      if(f.funders[i].amount > 0) {\r\n        uint amount = f.funders[i].amount;\r\n        f.funders[i].addr.transfer(amount);\r\n        \r\n        // \r\n        recordTransaction(address(this), f.funders[i].addr, amount, \"\");\r\n        \r\n        // \r\n        f.funders[i].amount = 0;\r\n      }\r\n    }\r\n    \r\n    // \r\n    f.amount = 0;\r\n    f.endTime = block.timestamp;  // \r\n    \r\n    // \r\n    recordTransaction(msg.sender, address(this), 0, \"\");\r\n  }\r\n}\r\n",
  "sourcePath": "D:\\QQ\\QQfile\\BC\\BC33\\CrowdFunding2\\sloc\\contracts\\CrowdFunding.sol",
  "compiler": {
    "name": "solc",
    "version": "0.5.16+commit.9c3226ce.Emscripten.clang"
  },
  "schemaVersion": "3.4.16",
  "updatedAt": "2025-06-02T07:52:55.547Z",
  "networkType": "ethereum",
  "devdoc": {
    "methods": {
      "newFunding(address,string,string,uint256,uint256)": {
        "params": {
          "endTime": "",
          "goal": "",
          "info": "",
          "initiator": "",
          "title": ""
        }
      }
    }
  },
  "userdoc": {
    "methods": {
      "newFunding(address,string,string,uint256,uint256)": {
        "notice": ""
      }
    }
  }
}